:1000000019C03FC03EC03DC03CC03BC03AC039C033
:1000100038C094C036C035C034C033C032C031C0DF
:1000200030C02FC02EC02DC02CC02BC02AC029C06C
:1000300028C027C011241FBECFEFCDBFDFE3DEBF36
:100040008091400080934000811105C098ED21E02F
:1000500094BF209341008CBB1FE3A0E0BFE3E4E129
:10006000F5E002C005900D92A430B107D9F72FE357
:10007000A4E0BFE301C01D92AE30B207E1F78DD01E
:1000800047C2BECF0F931F93AB01BC018FB7F8944B
:100090000091083F1091093F20910A3F30910B3F9A
:1000A0008FBFEFB7F8948091083F9091093FA091DE
:1000B0000A3FB0910B3FEFBF801B910BA20BB30B1C
:1000C00084179507A607B70760F31F910F9108954E
:1000D00094E0811116C0909306049091000492FD63
:1000E0000AC09FB7F89481110FC080911204877FD6
:1000F000809312049FBF8091010A8B7F8093010A35
:10010000089590930504E9CF809112048860F0CFA0
:1001100084E080930104E2E0F4E08089877F808BB3
:100120000895009719F480E0D3DFF2CF80932C0A72
:100130008091010A84608093010AF7CF8F9382E057
:1001400080930B0A8FB78F93EF93FF93E4E0FFE365
:100150009F9368948FEF0DC0E89484819581805DB2
:100160009C4F84839583885E934080F0848395833D
:100170008FEF9081981B919390819F4F91939081E5
:100180009F4F919390819F4F919336F39F91FF9151
:10019000EF918F918FBF8F91189588ED90E084BF7C
:1001A00090936100E0E0F6E083E582838DE0858353
:1001B00080E28383C1E0C083C0930202C093030A3C
:1001C0008EEF8093260A8093270A8BE08093000AA3
:1001D00082E080930A0A78949BDF8091000669EFA1
:1001E00072E8882361F0C0930606C09308068091E8
:1001F0000B0680FFFCCF6091100670911106072E50
:10020000000C880B990B611571058105910509F0AA
:100210000DD19EE1C92ED12CE12CF12C29EA822EA0
:1002200021E6922EA12CB12C412C512C3201A3019C
:100230009201C301B2015DD1A701960100D1C901AC
:1002400070DF64EB70E080E090E01CDF2FEF421A7B
:10025000520A620A720A8FE148165104610471045D
:1002600031F764EF71E080E090E00CDF8EE1482E22
:10027000512C612C712CA3019201C301B20139D11F
:10028000A7019601DCD0C9014CDF61EE70E080E08F
:1002900090E0F8DEE1E04E1A510861087108FFEFC6
:1002A0004F165F066F067F0631F790E080E039DF7A
:1002B00071D0A5019401C3D02B013C0128E8420E66
:1002C00023E1521E611C711CDC01CB01E0E14E16E2
:1002D00051046104710450F0C301B201D3DEA4CF14
:1002E000E7E8F3E13197F1F700C000000197A109B9
:1002F000B1098737FCEE9F07FFEFAF07BF0781F714
:1003000093CF8F929F92AF92BF92CF92DF92EF9254
:10031000FF92CF93DF93EC01688179818A819B8181
:10032000611571058105910521F464E279ED8BE594
:1003300097E02DE133EF41E050E081D049015A01CF
:100340009B01AC01A7EAB1E496D06B017C01ACEE55
:10035000B4EFA50194019BD0C60ED71EE81EF91E6E
:10036000F7FE06C081E0C81AD108E10880E8F80A63
:10037000C882D982EA82FB82C701B6019F77DF91EA
:10038000CF91FF90EF90DF90CF90BF90AF909F9074
:100390008F9008958F929F92AF92BF92CF92DF92EB
:1003A000EF92FF926091003F7091013F8091023F78
:1003B0009091033F611571058105910521F464E277
:1003C00079ED8BE597E02DE133EF41E050E037D058
:1003D00049015A019B01AC01A7EAB1E44CD06B0181
:1003E0007C01ACEEB4EFA501940151D0C60ED71E2E
:1003F000E81EF91EF7FE06C081E0C81AD108E10820
:1004000080E8F80AC092003FD092013FE092023F9C
:10041000F092033FC701B6019F77FF90EF90DF9006
:10042000CF90BF90AF909F908F9008956093003FC2
:100430007093013F8093023F9093033F0895052EF0
:1004400097FB16F400940FD057FD05D024D007FC7D
:1004500002D046F408C050954095309521953F4F05
:100460004F4F5F4F089590958095709561957F4FA0
:100470008F4F9F4F089531D0A59F900DB49F900D41
:10048000A49F800D911D11240895B7FFF4CFF3DFD1
:10049000821B930B0895A1E21A2EAA1BBB1BFD0120
:1004A0000DC0AA1FBB1FEE1FFF1FA217B307E40753
:1004B000F50720F0A21BB30BE40BF50B661F771FAB
:1004C000881F991F1A9469F760957095809590958B
:1004D0009B01AC01BD01CF010895A29FB001B39F64
:1004E000C001A39F01D0B29F700D811D1124911DE9
:1004F0000895DB018F939F93BEDFBF91AF91A29FC1
:10050000800D911DA39F900DB29F900D1124089511
:04051000F894FFCF8D
:0405140001000000E2
:00000001FF
