:1000000019C03FC03EC03DC03CC03BC03AC039C033
:1000100038C0ACC036C035C034C033C032C031C0C7
:1000200030C02FC02EC02DC02CC02BC02AC029C06C
:1000300028C027C011241FBECFEFCDBFDFE3DEBF36
:100040008091400080934000811105C098ED21E02F
:1000500094BF209341008CBB1FE3A0E0BFE3E8E71F
:10006000F6E002C005900D92A430B107D9F72FE356
:10007000A4E0BFE301C01D92AE30B207E1F7A5D006
:10008000F9C2BECF0F931F93AB01BC018FB7F89499
:100090000091083F1091093F20910A3F30910B3F9A
:1000A0008FBFEFB7F8948091083F9091093FA091DE
:1000B0000A3FB0910B3FEFBF801B910BA20BB30B1C
:1000C00084179507A607B70760F31F910F9108954E
:1000D00094E0811116C0909306049091000492FD63
:1000E0000AC09FB7F89481110FC080911204877FD6
:1000F000809312049FBF8091010A8B7F8093010A35
:10010000089590930504E9CF809112048860F0CFA0
:1001100084E080930104E2E0F4E08089877F808BB3
:100120000895181619061CF080E0D2DFF1CF8F3F3A
:10013000910514F081E0F9CF80932C0A8091010A97
:1001400084608093010AF2CF6031710581059105C9
:1001500038F098CFE7E8F3E13197F1F700C00000FD
:100160006150710981099109A8F708958F9382E080
:1001700080930B0A8FB78F93EF93FF93E4E0FFE335
:100180009F9368948FEF0DC0E89484819581805D82
:100190009C4F84839583885E934080F0848395830D
:1001A0008FEF9081981B919390819F4F91939081B5
:1001B0009F4F919390819F4F919336F39F91FF9121
:1001C000EF918F918FBF8F911895CF93DF93CDB71C
:1001D000DEB72897CDBFDEBF88ED90E084BF909357
:1001E0006100E0E0F6E083E582838DE0858380E2D4
:1001F000838321E02083209302022093030A8EEF61
:100200008093260A8093270A8BE08093000A82E07D
:1002100080930A0A78948091A1008D7F8093A10039
:10022000809102068F7C80658093020671DF809149
:10023000000669EF72E8882369F031E03093060622
:100240003093080680910B0680FFFCCF609110066A
:1002500070911106072E000C880B990B6115710522
:100260008105910509F094D1442443949EEF592EC1
:10027000612C712C80910006882309F4ECC047E0C2
:100280004093060651E05093080680910B0680FFCC
:10029000FCCF8091100690911106833393400CF4AB
:1002A000DAC02AD120E130E040E050E07AD14B01C1
:1002B0005C013AE0830E911CA11CB11C1DD122E00F
:1002C00030E040E050E06DD19B01AC012B5F3F4F2F
:1002D0004F4F5F4F29833A834B835C830DD124E0DA
:1002E00030E040E050E05DD19B01AC01285F3F4F22
:1002F0004F4F5F4F2D833E834F835887C12CD12CA6
:100300007601A7019601C701B601A5D19B01AC01F9
:10031000C501B401A0D1A301920143D1C90101DFFC
:1003200069817A818B819C810FDF3FEFC31AD30AE9
:10033000E30AF30AC11441E0D406E104F10409F729
:10034000DBD020ED37E040E050E02BD16053784F18
:100350008F4F9F4FF9DEC12CD12C7601CA94A70193
:100360009601C701B60177D19B01AC01C501B4016B
:1003700072D1A301920115D1C901D3DE6D817E81B5
:100380008F819885E1DE51E0C51AD108E108F108B6
:100390008FEFC816D806E806F80609F790E080E067
:1003A000C0DE60ED77E080E090E06CDEA5D021E774
:1003B00037E140E050E0F5D06B017C0120EAC20E4D
:1003C0002FE0D21EE11CF11C8FB7F8948090083FFB
:1003D0009090093FA0900A3FB0900B3F8FBF2FB77E
:1003E000F8948091083F9091093FA0910A3FB09105
:1003F0000B3F2FBF88199909AA09BB098C159D05C8
:10040000AE05BF0508F036CF8091000681110CC003
:1004100073D025E833E040E050E0C3D0645D7E4F08
:100420008F4F9F4F91DE26CF37E03093060641E095
:100430004093080680910B0680FFFCCF8091100648
:1004400090911106811592401CF362E370E080E008
:1004500090E018DEC4CF80E03BDE68EE73E080E021
:1004600090E010DE07CF8F929F92AF92BF92CF9213
:10047000DF92EF92FF92CF93DF93EC016881798155
:100480008A819B81611571058105910521F464E2E2
:1004900079ED8BE597E02DE133EF41E050E081D03D
:1004A00049015A019B01AC01A7EAB1E496D06B0166
:1004B0007C01ACEEB4EFA50194019BD0C60ED71E13
:1004C000E81EF91EF7FE06C081E0C81AD108E1084F
:1004D00080E8F80AC882D982EA82FB82C701B601A5
:1004E0009F77DF91CF91FF90EF90DF90CF90BF90FB
:1004F000AF909F908F9008958F929F92AF92BF92EE
:10050000CF92DF92EF92FF926091003F7091013F96
:100510008091023F9091033F61157105810591051E
:1005200021F464E279ED8BE597E02DE133EF41E0D2
:1005300050E037D049015A019B01AC01A7EAB1E470
:100540004CD06B017C01ACEEB4EFA501940151D00D
:10055000C60ED71EE81EF91EF7FE06C081E0C81AB7
:10056000D108E10880E8F80AC092003FD092013F2C
:10057000E092023FF092033FC701B6019F77FF90E0
:10058000EF90DF90CF90BF90AF909F908F900895A5
:100590006093003F7093013F8093023F9093033F2D
:1005A0000895052E97FB16F400940FD057FD05D043
:1005B00024D007FC02D046F408C0509540953095F1
:1005C00021953F4F4F4F5F4F0895909580957095BF
:1005D00061957F4F8F4F9F4F089531D0A59F900D0C
:1005E000B49F900DA49F800D911D11240895B7FF15
:1005F000F4CFF3DF821B930B0895A1E21A2EAA1BFE
:10060000BB1BFD010DC0AA1FBB1FEE1FFF1FA217C2
:10061000B307E407F50720F0A21BB30BE40BF50BBF
:10062000661F771F881F991F1A9469F76095709548
:10063000809590959B01AC01BD01CF010895A29FCB
:10064000B001B39FC001A39F01D0B29F700D811D67
:100650001124911D0895DB018F939F93BEDFBF91FD
:10066000AF91A29F800D911DA39F900DB29F900D01
:0806700011240895F894FFCF56
:04067800010000007D
:00000001FF
