:100000001AC04AC049C048C047C046C045C06CC2BB
:1000100043C0B7C141C040C03FC03EC03DC03CC06E
:100020003BC03AC039C038C037C036C0DFC1D8C1C4
:10003000E3C132C0280411241FBECFEFCDBFDFE3E0
:10004000DEBF8091400080934000811105C098ED93
:1000500021E094BF209341008CBB1FE3A0E0BFE3ED
:10006000EEEAFAE002C005900D92A430B107D9F78C
:100070002FE3A4E0BFE301C01D92AF33B207E1F765
:1000800010E0CBE1D0E003C02197FE01FFD4CA31DC
:10009000D107D1F738D200C5B3CF0F931F93AB016F
:1000A000BC018FB7F8940091393F10913A3F2091ED
:1000B0003B3F30913C3F8FBFEFB7F8948091393F81
:1000C00090913A3FA0913B3FB0913C3FEFBF801BE6
:1000D000910BA20BB30B84179507A607B70760F324
:1000E0001F910F910895AF92BF92CF92DF92EF923E
:1000F000FF920F931F93CF93DF936C017B018B01D2
:10010000040F151FEB015E01AE18BF08C017D10721
:1001100059F06991D601ED91FC910190F081E02DAB
:10012000C6010995892B79F7C501DF91CF911F9100
:100130000F91FF90EF90DF90CF90BF90AF90089518
:10014000FC0157854089252F30E0842F90E0821BE9
:10015000930B541710F00F96089501970895FC0122
:1001600095858685981761F0A685AE0FBF2FB11DC6
:1001700051968C9196859F5F9F70968790E0089529
:100180008FEF9FEF0895FC0195858685981731F0D4
:100190008685E80FF11D818990E008958FEF9FEF2C
:1001A0000895FC0195852685892F90E04096821B55
:1001B00091098F7099270895DC010FB607FE04C0DE
:1001C000809111018823B1F01896ED91FC91199757
:1001D000848185FF0FC01F969C911F9750968C912C
:1001E000981304C085818F7D85830895E4E0FFE343
:1001F000E8940FC108950F931F93CF93DF93EC0101
:100200008C8581608C879F85888998130BC0E885D1
:10021000F985848185FF06C08C8581FD0DC080E451
:10022000848312C0062F1F851F5F1F70888981136A
:1002300015C0CE01C1DFFACF85818F77806490E44D
:100240009483E885F9858583E885F985628381E073
:1002500090E0DF91CF911F910F910895EF85EC0F02
:10026000FD2FF11D01A31F878C85E885F98581FF8E
:1002700009C085818F77806690E49483E885F9854D
:100280008583E5CF85818062FBCFCF93DF93EC013F
:100290008C8580FF0BC0E885F985858185FD03C0CD
:1002A000848186FD03C0CE0187DFF5CFDF91CF913A
:1002B0000895E0E5F0E08081897F8460808380811B
:1002C00081608083889580818E7F8083089594E00B
:1002D000811116C0909306049091000492FD0AC00B
:1002E0009FB7F89481110FC080911204877F80938B
:1002F00012049FBF8091010A8B7F8093010A0895A9
:1003000090930504E9CF809112048860F0CF84E0D7
:1003100080930104E2E0F4E08089877F808B089578
:10032000181619061CF080E0D2DFF1CF8F3F91053F
:1003300014F081E0F9CF80932C0A8091010A846047
:100340008093010AF2CFE0EAF0E081818D7F818322
:10035000E0E0F6E082818F7C8065828308956031E1
:1003600071058105910538F098CEE7E8F3E1319702
:10037000F1F700C000006150710981099109A8F7E7
:1003800008958F9382E080930B0A8FB78F93EF933A
:10039000FF93E5E3FFE39F9368948FEF0DC0E8942C
:1003A00084819581805D9C4F84839583885E934092
:1003B00080F0848395838FEF9081981B9193908137
:1003C0009F4F919390819F4F919390819F4F9193D5
:1003D00036F39F91FF91EF918F918FBF8F91189579
:1003E000EF93FF93F898E4E0FFE30BC0EF93FF93E4
:1003F000F898E4E0FFE332C0EF93FF93E4E0FFE31B
:100400005AC02F932FB72F938F939F93AF93BF9380
:100410006894CF93DF9320E0C085D8E09089DF0116
:10042000A90FB21F91968C9120E42C838A839F5F41
:100430009F708D812785291302C08F7D8D83908BBE
:10044000DF91CF910EF0D6CEBF91AF919F918F915A
:100450002F912FBF2F91FF91EF9118952F932FB7C9
:100460002F933F938F939F93CF93DF93C085D8E0D3
:10047000898198818674880F3485382B82FD0DC060
:10048000C58581E08C0F8F702685281791F0CE0FDF
:10049000DF2F20E0D21F998B85873487DF91CF91A2
:1004A0009F918F913F912F912FBF2F91FF91EF91AE
:1004B00018953064F2CF8F938FB78F939F93CF931C
:1004C000DF93C085D8E09D8188818C8187FDFCCF3A
:1004D0009F7B90689D83DF91CF919F918F918FBF7C
:1004E0008F91FF91EF9118951F920F920FB60F9277
:1004F00011248F9381E0809353018F910F900FBE51
:100500000F901F901895CF93DF93CDB7DEB7289744
:10051000CDBFDEBF88ED90E084BF90936100E0E046
:10052000F6E083E582838DE0858380E2838321E0AA
:100530002083209302022093030A8EEF8093260AE1
:100540008093270A8BE08093000A82E080930A0A56
:100550007894F9DEDCDE8091000669EF72E888238A
:1005600069F031E0309306063093080680910B065F
:1005700080FFFCCF6091100670911106072E000CD1
:10058000880B990B611571058105910509F00CD255
:100590008091510180FDFCCF1092470181E0809352
:1005A000520189E580935001442443949EEF592ED3
:1005B000612C712CC8DE80E48093A000809100063D
:1005C000882371F08DE18093060641E04093080690
:1005D00080910B0680FFFCCF809110069091110650
:1005E0008091000629EF32E8882371F08DE1809335
:1005F000060651E05093080680910B0680FFFCCF61
:10060000209110063091110650E040E064E27AE655
:1006100087E190E0FED121503109273B3B40C8F5EE
:100620008EE190E07DDE6EE170E080E090E035DD0F
:1006300090E080E075DE64E670E080E090E02DDD23
:100640008EE190E06DDE6EE170E080E090E025DD0F
:1006500090E080E065DE64E670E080E090E01DDD23
:100660001092500110925201809100068E7F80936B
:10067000000680E02CDE80915000897F84608093AA
:10068000500080915000816080935000F8948895CC
:10069000FECF80910006882309F4CFC027E0209385
:1006A000060631E03093080680910B0680FFFCCFF0
:1006B0008091100690911106803293400CF4BDC0D9
:1006C00027D126EF30E040E050E077D14B015C01CC
:1006D0005AE0850E911CA11CB11C1AD122E030E019
:1006E00040E050E06AD19B01AC012B5F3F4F4F4F80
:1006F0005F4F29833A834B835C830AD124E030E047
:1007000040E050E05AD19B01AC01285F3F4F4F4F72
:100710005F4F2D833E834F835887C12CD12C7601A8
:10072000A7019601C701B601A2D19B01AC01C50189
:10073000B4019DD1A301920140D1C901F1DD6981CC
:100740007A818B819C810BDE3FEFC31AD30AE30AC7
:10075000F30AC11441E0D406E104F10409F7D8D04A
:1007600020ED37E040E050E028D16053784F8F4FC4
:100770009F4FF5DDC12CD12C7601CA94A7019601BB
:10078000C701B60174D19B01AC01C501B4016FD1A1
:10079000A301920112D1C901C3DD6D817E818F81D8
:1007A0009885DDDD51E0C51AD108E108F1088FEF29
:1007B000C816D806E806F80609F790E080E0B0DD34
:1007C00000E110E076DD01501109E1F7A1D021E34D
:1007D00030E040E050E0F1D0605E7F4F8F4F9F4FA0
:1007E0007B01D12CC12CCE14DF040CF0E3CE61DDF3
:1007F0008091000681110CC08BD025E833E040E0E9
:1008000050E0DBD0645D7E4F8F4F9F4FA8DDD2CE8E
:1008100027E02093060631E03093080680910B060E
:1008200080FFFCCF80911006909111068038924095
:100830001CF35FEFC51AD50AD6CF80E048DD39DD5D
:1008400038DD37DD36DD35DD34DD33DD32DDB2CEAA
:10085000E4E0FFE31282138288EE93E0A0E0B0E0D0
:1008600084839583A683B78380EA9AE88083918303
:1008700080E098E0808791871286138608958F9292
:100880009F92AF92BF92CF92DF92EF92FF92CF935F
:10089000DF93EC01688179818A819B816115710503
:1008A0008105910521F464E279ED8BE597E02DE176
:1008B00033EF41E050E081D049015A019B01AC0186
:1008C000A7EAB1E496D06B017C01ACEEB4EFA501D0
:1008D00094019BD0C60ED71EE81EF91EF7FE06C077
:1008E00081E0C81AD108E10880E8F80AC882D982F4
:1008F000EA82FB82C701B6019F77DF91CF91FF901B
:10090000EF90DF90CF90BF90AF909F908F90089521
:100910008F929F92AF92BF92CF92DF92EF92FF920F
:100920006091003F7091013F8091023F9091033FA1
:10093000611571058105910521F464E279ED8BE57E
:1009400097E02DE133EF41E050E037D049015A0103
:100950009B01AC01A7EAB1E44CD06B017C01ACEE89
:10096000B4EFA501940151D0C60ED71EE81EF91EA2
:10097000F7FE06C081E0C81AD108E10880E8F80A4D
:10098000C092003FD092013FE092023FF092033FBD
:10099000C701B6019F77FF90EF90DF90CF90BF9097
:1009A000AF909F908F9008956093003F7093013FA8
:1009B0008093023F9093033F0895052E97FB16F412
:1009C00000940FD057FD05D024D007FC02D046F488
:1009D00008C050954095309521953F4F4F4F5F4F40
:1009E000089590958095709561957F4F8F4F9F4F9B
:1009F000089531D0A59F900DB49F900DA49F800DB8
:100A0000911D11240895B7FFF4CFF3DF821B930BE0
:100A10000895A1E21A2EAA1BBB1BFD010DC0AA1F3F
:100A2000BB1FEE1FFF1FA217B307E407F50720F057
:100A3000A21BB30BE40BF50B661F771F881F991FD2
:100A40001A9469F760957095809590959B01AC011B
:100A5000BD01CF010895A29FB001B39FC001A39F24
:100A600001D0B29F700D811D1124911D0895DB01ED
:100A70008F939F93BEDFBF91AF91A29F800D911D79
:100A8000A39F900DB29F900D11240895EE0FFF1FAC
:0C0A90000590F491E02D0994F894FFCF3C
:100A9C0000000000FB007300A0004501D100AF0076
:020AAC00C30085
:040AAE000100000043
:00000001FF
